{
  "_format": "hh-sol-artifact-1",
  "contractName": "CredentialLedger",
  "sourceName": "contracts/CredentialLedger.sol",
  "abi": [
    {
      "inputs": [],
      "stateMutability": "nonpayable",
      "type": "constructor"
    },
    {
      "anonymous": false,
      "inputs": [
        {
          "indexed": true,
          "internalType": "bytes32",
          "name": "certHash",
          "type": "bytes32"
        },
        {
          "indexed": true,
          "internalType": "address",
          "name": "addedBy",
          "type": "address"
        }
      ],
      "name": "CertificateAdded",
      "type": "event"
    },
    {
      "inputs": [
        {
          "internalType": "bytes32",
          "name": "certHash",
          "type": "bytes32"
        }
      ],
      "name": "addCertificate",
      "outputs": [],
      "stateMutability": "nonpayable",
      "type": "function"
    },
    {
      "inputs": [
        {
          "internalType": "bytes32",
          "name": "",
          "type": "bytes32"
        }
      ],
      "name": "certificates",
      "outputs": [
        {
          "internalType": "bool",
          "name": "",
          "type": "bool"
        }
      ],
      "stateMutability": "view",
      "type": "function"
    },
    {
      "inputs": [],
      "name": "owner",
      "outputs": [
        {
          "internalType": "address",
          "name": "",
          "type": "address"
        }
      ],
      "stateMutability": "view",
      "type": "function"
    },
    {
      "inputs": [
        {
          "internalType": "bytes32",
          "name": "certHash",
          "type": "bytes32"
        }
      ],
      "name": "verifyCertificate",
      "outputs": [
        {
          "internalType": "bool",
          "name": "",
          "type": "bool"
        }
      ],
      "stateMutability": "view",
      "type": "function"
    }
  ],
  "bytecode": "0x6080604052348015600f57600080fd5b50336000806101000a81548173ffffffffffffffffffffffffffffffffffffffff021916908373ffffffffffffffffffffffffffffffffffffffff16021790555061051f8061005f6000396000f3fe608060405234801561001057600080fd5b506004361061004c5760003560e01c8063742f068814610051578063750f9f8714610081578063850c17681461009d5780638da5cb5b146100cd575b600080fd5b61006b600480360381019061006691906102f5565b6100eb565b604051610078919061033d565b60405180910390f35b61009b600480360381019061009691906102f5565b61010b565b005b6100b760048036038101906100b291906102f5565b61026c565b6040516100c4919061033d565b60405180910390f35b6100d5610296565b6040516100e29190610399565b60405180910390f35b60016020528060005260406000206000915054906101000a900460ff1681565b60008054906101000a900473ffffffffffffffffffffffffffffffffffffffff1673ffffffffffffffffffffffffffffffffffffffff163373ffffffffffffffffffffffffffffffffffffffff1614610199576040517f08c379a000000000000000000000000000000000000000000000000000000000815260040161019090610437565b60405180910390fd5b6001600082815260200190815260200160002060009054906101000a900460ff16156101fa576040517f08c379a00000000000000000000000000000000000000000000000000000000081526004016101f1906104c9565b60405180910390fd5b600180600083815260200190815260200160002060006101000a81548160ff0219169083151502179055503373ffffffffffffffffffffffffffffffffffffffff16817f252a09b199a2cda362218e6d1492ad417c0fb0123976e6bce284e11dc7cfd17f60405160405180910390a350565b60006001600083815260200190815260200160002060009054906101000a900460ff169050919050565b60008054906101000a900473ffffffffffffffffffffffffffffffffffffffff1681565b600080fd5b6000819050919050565b6102d2816102bf565b81146102dd57600080fd5b50565b6000813590506102ef816102c9565b92915050565b60006020828403121561030b5761030a6102ba565b5b6000610319848285016102e0565b91505092915050565b60008115159050919050565b61033781610322565b82525050565b6000602082019050610352600083018461032e565b92915050565b600073ffffffffffffffffffffffffffffffffffffffff82169050919050565b600061038382610358565b9050919050565b61039381610378565b82525050565b60006020820190506103ae600083018461038a565b92915050565b600082825260208201905092915050565b7f4f6e6c7920746865206f776e65722063616e2063616c6c20746869732066756e60008201527f6374696f6e2e0000000000000000000000000000000000000000000000000000602082015250565b60006104216026836103b4565b915061042c826103c5565b604082019050919050565b6000602082019050818103600083015261045081610414565b9050919050565b7f54686973206365727469666963617465206861736820697320616c726561647960008201527f206f6e20746865206c65646765722e0000000000000000000000000000000000602082015250565b60006104b3602f836103b4565b91506104be82610457565b604082019050919050565b600060208201905081810360008301526104e2816104a6565b905091905056fea2646970667358221220cd26e23251f48f40514c95a07ec4a001f8bcf57088383fe06bb20efcad60c0b364736f6c634300081c0033",
  "linkReferences": {},
  "deployedLinkReferences": {}
}